{
  "_format": "hh-sol-artifact-1",
  "contractName": "WalletBuilder",
  "sourceName": "contracts/WalletBuilder.sol",
  "abi": [
    {
      "inputs": [],
      "stateMutability": "nonpayable",
      "type": "constructor"
    },
    {
      "anonymous": false,
      "inputs": [
        {
          "indexed": false,
          "internalType": "address",
          "name": "_newWalletAddress",
          "type": "address"
        },
        {
          "indexed": false,
          "internalType": "uint256",
          "name": "_createdTimestamp",
          "type": "uint256"
        }
      ],
      "name": "CreateWallet",
      "type": "event"
    },
    {
      "inputs": [],
      "name": "createWallet",
      "outputs": [
        {
          "internalType": "address",
          "name": "",
          "type": "address"
        }
      ],
      "stateMutability": "nonpayable",
      "type": "function"
    },
    {
      "inputs": [],
      "name": "getOwner",
      "outputs": [
        {
          "internalType": "address",
          "name": "",
          "type": "address"
        }
      ],
      "stateMutability": "view",
      "type": "function"
    },
    {
      "inputs": [
        {
          "internalType": "address",
          "name": "",
          "type": "address"
        }
      ],
      "name": "wallets",
      "outputs": [
        {
          "internalType": "uint256",
          "name": "",
          "type": "uint256"
        }
      ],
      "stateMutability": "view",
      "type": "function"
    }
  ],
  "bytecode": "0x608060405234801561001057600080fd5b50336000806101000a81548173ffffffffffffffffffffffffffffffffffffffff021916908373ffffffffffffffffffffffffffffffffffffffff160217905550610767806100606000396000f3fe608060405234801561001057600080fd5b50600436106100415760003560e01c806311ebbf2414610046578063893d20e81461006457806389b08f1114610082575b600080fd5b61004e6100b2565b60405161005b91906102d7565b60405180910390f35b61006c61020a565b60405161007991906102d7565b60405180910390f35b61009c6004803603810190610097919061026d565b610233565b6040516100a9919061033b565b60405180910390f35b60003373ffffffffffffffffffffffffffffffffffffffff1660008054906101000a900473ffffffffffffffffffffffffffffffffffffffff1673ffffffffffffffffffffffffffffffffffffffff1614610142576040517f08c379a00000000000000000000000000000000000000000000000000000000081526004016101399061031b565b60405180910390fd5b6000336040516101519061024b565b61015b91906102d7565b604051809103906000f080158015610177573d6000803e3d6000fd5b5090506000819050600042905080600160008473ffffffffffffffffffffffffffffffffffffffff1673ffffffffffffffffffffffffffffffffffffffff168152602001908152602001600020819055507fae872e3635caff3b3832933d9806fbb87f4234a74ecee890a2fe85574546caee82826040516101f99291906102f2565b60405180910390a181935050505090565b60008060009054906101000a900473ffffffffffffffffffffffffffffffffffffffff16905090565b60016020528060005260406000206000915090505481565b61034e806103e483390190565b600081359050610267816103cc565b92915050565b60006020828403121561027f57600080fd5b600061028d84828501610258565b91505092915050565b61029f81610367565b82525050565b60006102b2601183610356565b91506102bd826103a3565b602082019050919050565b6102d181610399565b82525050565b60006020820190506102ec6000830184610296565b92915050565b60006040820190506103076000830185610296565b61031460208301846102c8565b9392505050565b60006020820190508181036000830152610334816102a5565b9050919050565b600060208201905061035060008301846102c8565b92915050565b600082825260208201905092915050565b600061037282610379565b9050919050565b600073ffffffffffffffffffffffffffffffffffffffff82169050919050565b6000819050919050565b7f5065726d697373696f6e2064656e696564000000000000000000000000000000600082015250565b6103d581610367565b81146103e057600080fd5b5056fe608060405234801561001057600080fd5b5060405161034e38038061034e8339818101604052810190610032919061004d565b506100bf565b600081519050610047816100a8565b92915050565b60006020828403121561005f57600080fd5b600061006d84828501610038565b91505092915050565b600061008182610088565b9050919050565b600073ffffffffffffffffffffffffffffffffffffffff82169050919050565b6100b181610076565b81146100bc57600080fd5b50565b610280806100ce6000396000f3fe60806040526004361061002d5760003560e01c806312065fe0146100d5578063853828b614610100576100d0565b366100d05733600160006101000a81548173ffffffffffffffffffffffffffffffffffffffff021916908373ffffffffffffffffffffffffffffffffffffffff1602179055507ffe87ea15c8bc24dba7527bdf56cbe51bd91e401a821f00854fc668bed87513f534600160009054906101000a900473ffffffffffffffffffffffffffffffffffffffff166040516100c69291906101e5565b60405180910390a1005b600080fd5b3480156100e157600080fd5b506100ea610117565b6040516100f791906101ca565b60405180910390f35b34801561010c57600080fd5b5061011561011f565b005b600047905090565b60008060009054906101000a900473ffffffffffffffffffffffffffffffffffffffff16905060003090508173ffffffffffffffffffffffffffffffffffffffff166108fc8273ffffffffffffffffffffffffffffffffffffffff16319081150290604051600060405180830381858888f193505050501580156101a7573d6000803e3d6000fd5b505050565b6101b58161020e565b82525050565b6101c481610240565b82525050565b60006020820190506101df60008301846101bb565b92915050565b60006040820190506101fa60008301856101bb565b61020760208301846101ac565b9392505050565b600061021982610220565b9050919050565b600073ffffffffffffffffffffffffffffffffffffffff82169050919050565b600081905091905056fea26469706673582212204314303f25f5c730c405c8d13346d282d4616497f7af37ea17db4b7d904e541264736f6c63430008040033a2646970667358221220e3f09f31c0badf17ec779ff9e49dba3988a0cc4386b7e25e218f1dcc89bb98c164736f6c63430008040033",
  "linkReferences": {},
  "deployedLinkReferences": {}
}