{
  "_format": "hh-sol-artifact-1",
  "contractName": "Wallet",
  "sourceName": "contracts/Wallet.sol",
  "abi": [
    {
      "inputs": [
        {
          "internalType": "address",
          "name": "owner",
          "type": "address"
        }
      ],
      "stateMutability": "nonpayable",
      "type": "constructor"
    },
    {
      "anonymous": false,
      "inputs": [
        {
          "indexed": false,
          "internalType": "uint256",
          "name": "_balance",
          "type": "uint256"
        },
        {
          "indexed": false,
          "internalType": "address",
          "name": "_subscriber",
          "type": "address"
        }
      ],
      "name": "Paid",
      "type": "event"
    },
    {
      "inputs": [],
      "name": "getBalance",
      "outputs": [
        {
          "internalType": "uint256",
          "name": "",
          "type": "uint256"
        }
      ],
      "stateMutability": "view",
      "type": "function"
    },
    {
      "inputs": [],
      "name": "withdrawAll",
      "outputs": [],
      "stateMutability": "nonpayable",
      "type": "function"
    },
    {
      "stateMutability": "payable",
      "type": "receive"
    }
  ],
  "bytecode": "0x608060405234801561001057600080fd5b5060405161034e38038061034e8339818101604052810190610032919061004d565b506100bf565b600081519050610047816100a8565b92915050565b60006020828403121561005f57600080fd5b600061006d84828501610038565b91505092915050565b600061008182610088565b9050919050565b600073ffffffffffffffffffffffffffffffffffffffff82169050919050565b6100b181610076565b81146100bc57600080fd5b50565b610280806100ce6000396000f3fe60806040526004361061002d5760003560e01c806312065fe0146100d5578063853828b614610100576100d0565b366100d05733600160006101000a81548173ffffffffffffffffffffffffffffffffffffffff021916908373ffffffffffffffffffffffffffffffffffffffff1602179055507ffe87ea15c8bc24dba7527bdf56cbe51bd91e401a821f00854fc668bed87513f534600160009054906101000a900473ffffffffffffffffffffffffffffffffffffffff166040516100c69291906101e5565b60405180910390a1005b600080fd5b3480156100e157600080fd5b506100ea610117565b6040516100f791906101ca565b60405180910390f35b34801561010c57600080fd5b5061011561011f565b005b600047905090565b60008060009054906101000a900473ffffffffffffffffffffffffffffffffffffffff16905060003090508173ffffffffffffffffffffffffffffffffffffffff166108fc8273ffffffffffffffffffffffffffffffffffffffff16319081150290604051600060405180830381858888f193505050501580156101a7573d6000803e3d6000fd5b505050565b6101b58161020e565b82525050565b6101c481610240565b82525050565b60006020820190506101df60008301846101bb565b92915050565b60006040820190506101fa60008301856101bb565b61020760208301846101ac565b9392505050565b600061021982610220565b9050919050565b600073ffffffffffffffffffffffffffffffffffffffff82169050919050565b600081905091905056fea26469706673582212204314303f25f5c730c405c8d13346d282d4616497f7af37ea17db4b7d904e541264736f6c63430008040033",
  "linkReferences": {},
  "deployedLinkReferences": {}
}